S015000070757A7A6C655F736F6C7665722E737265636B
S1130000C2C00000E1C00000DFC00000DDC000008D
S1130010DBC00000C2C50000C3C40000D5C000009E
S1130020D3C00000D1C00000CFC00000CDC000008C
S1130030CBC00000C9C00000C7C00000C5C000009C
S1130040C3C000000C940209BFC00000BDC0000082
S1130050BBC00000B9C00000B7C00000B5C00000BC
S1130060B3C00000B1C00000AFC00000ADC00000CC
S1130070ABC00000A9C00000A7C00000A5C00000DC
S1130080A3C00000A1C000009FC000009DC00000EC
S11300909BC0000099C0000097C0000095C00000FC
S11300A093C0000091C000008FC000008DC000000C
S11300B08BC0000089C0000087C0000085C000001C
S11300C083C0000081C000007FC000007DC000002C
S11300D07BC0000079C0000077C0000075C000003C
S11300E073C000006F0376037D0384038D039403C0
S11300F09B03A203A903B203B903C003C703CF033D
S1130100D903E103E903F103F90303040B04150420
S11301101D0425042D0435043D0445044C045304F6
S11301205C0463046A04710478047F049B0ACC0AA7
S11301308E12ED0A140B360B620B8E12840BAB0B72
S1130140340D5C0D8E12730D920DED0DFD0D8E129E
S1130150690E8E12D60E0C0F420F990FB50F261092
S1130160971008118E12791185119F11B311CD11B9
S1130170F70BFD0B340C050C0B0C130C190C340C85
S1130180210C270C2F0C11241FBECFEFD1E2DEBFB0
S1130190CDBF00E00CBF13E0A0E0B2E0E0E3F9E281
S11301A000E00BBF02C007900D92A237B107D9F748
S11301B024E0A2E7B3E001C01D92AE3CB207E1F730
S11301C00E94DE120C9496141BCFFC0187A98111A6
S11301D01CC087A190A5A1A5B2A58897A105B105CA
S11301E0B4F487A590A9A1A9B2A98897A105B105DE
S11301F084F481E043A554A565A576A5483251054C
S1130200610571053CF080E005C081E003C080E039
S113021001C080E08170089522E2FC01258325E07D
S113022030E037832683089528E1FC01238323E00B
S113023030E0378326830895FC0181818E3019F0E4
S11302408F3041F0089584E2818381E090E09783C8
S11302508683089584E2818381E090E09783868396
S1130260089586E69EE00197F1F7000040984198D2
S113027080E388B9429AEFEFF7E43197F1F700C0D1
S113028000004298E6E6FEE03197F1F7000040985E
S1130290419888B9429AEFEFF7E43197F1F700C03B
S11302A000004298E6E6FEE03197F1F7000040983E
S11302B0419888B9429A8FEF97E40197F1F700C00B
S11302C000004298E6E6FEE03197F1F7000040981E
S11302D0419880E288B9429A8FEF97E40197F1F749
S11302E000C000004298089598B19F7098B998B1E1
S11302F0282F207F922B98B940984198429AEFEF8B
S1130300F7E43197F1F700C00000429898B19F706C
S113031098B998B18295807F892B88B94098419883
S1130320429A8FEF97E40197F1F700C000004298DA
S1130330089597DF86E69EE00197F1F7000088E2D2
S1130340D3DF81E0D1DF86E0CFDF8EE0CDDF80E850
S1130350CBCF089598B19F7098B998B1282F207F7A
S1130360922B98B9409A4198429AEFEFF7E431976B
S1130370F1F700C00000429898B19F7098B998B105
S11303808295807F892B88B9409A4198429A8FEF51
S113039097E40197F1F700C000004298089580E8BF
S11303A0A3CF0895CF93DF93EC018881882329F0AC
S11303B02196D0DF89918111FCCFDF91CF910895EF
S11303C0823069F018F4813031F00895833059F0A7
S11303D0843069F008958FE7860F86CF08958FEBF8
S11303E0860F82CF089583E9860F7ECF089583ED2B
S11303F0860F7ACF08950F931F93CF93DF938A01CB
S1130400E901882311F0611102C0C9DF01C0D8DFFE
S1130410C530D105C1F49801329522952F70232758
S11304203F702327A7E4B3E00E947E149695879536
S11304309695879596958795C0969093CA038093D1
S1130440C90388DF04C0C430D10509F0BEC09801D7
S1130450369527953695279536952795A5ECB0E2E0
S11304600E947E14AC01529542954F7045275F70EF
S113047045275093CC034093CB039A01ADECBCECDD
S11304800E947E149695879596958795969587955F
S11304909C01220F331F880F991F880F991F880F03
S11304A0991F820F931F9A01281B390BC901C0960B
S11304B090933704809336044DDF98013695279541
S11304C036952795ABE7B4E10E947E14AC015695AE
S11304D047955093CC034093CB039A01ADECBCEC0D
S11304E00E947E14969587959695879596958795FF
S11304F09C01220F331F880F991F880F991F880FA3
S1130500991F820F931F9A01281B390BC901C096AA
S113051090930304809302041DDF04C0C230D1050C
S113052009F058C09801ADECBCEC0E947E14AC01FB
S11305305695479556954795569547955093CC03B0
S11305404093CB039A010E947E14969587959695C5
S11305508795969587959C01220F331F880F991FC5
S1130560880F991F880F991F820F931F9A01281BC8
S1130570390BC901C096909300048093FF03EADE0F
S11305809801ADECBCEC0E947E14969587959695E7
S11305908795969587959C01220F331F880F991F85
S11305A0880F991F880F991F820F931F9801281B8A
S11305B0390BC901C0969093350480933404CADE84
S11305C0269764F085E4C6DE09C0C330D10509F07E
S11305D0A5CF73CFC130D10599F7D2CFDF91CF9199
S11305E01F910F910895FC0184E2808381838283AB
S11305F083838483858317821682108611861286EC
S113060013861486158616861786108A118A128A0E
S1130610138A148A8AE292E0968B858B81E090E0BB
S1130620A0E0B0E0878B908FA18FB28F138E148ED1
S1130630158E168E178E10A211A212A213A214A246
S113064015A216A217A210A611A612A613A614A6E6
S113065015A616A617A610AA11AA12AA13AA14AAB6
S113066015AA16AA17AA10AE11AE12AE13AE14AE86
S113067015AE16AEDF01DF961D921D921D921C92DF
S1130680139714961D921D921D921C921397E95B69
S1130690FF4F10821182128213820895FC0181E0BF
S11306A08087808380E1818381E1828388E1838301
S11306B089E1848382E2858385E090E09783868361
S11306C00895DC01462F50E04432510508F01DC165
S11306D0FA018827EE58FF4F8F4F0C94761481E06F
S11306E09C91933208F412C180E0089581E09C91BA
S11306F0913009F40BC180E0089581E09C9192301F
S113070009F404C180E008958C919DEF980F81E075
S1130710933008F4FBC080E0089581E09C9194300C
S113072009F4F4C080E0089581E09C91953009F4C7
S1130730EDC080E0089581E09C91963009F4E6C014
S113074080E0089581E09C91973009F4DFC080E057
S113075008958C9198EF980F81E0933008F4D6C0F7
S113076080E0089581E09C91993009F4CFC080E045
S1130770089581E09C919A3009F4C8C080E00895FE
S113078081E09C919B3009F4C1C080E0089581E030
S113079011969C919C3009F4B9C080E0089511969B
S11307A08C9193EF980F81E0933008F4AFC080E010
S11307B0089581E011969C919E3009F4A7C080E0D1
S11307C0089581E011969C919F3009F49FC080E0C8
S11307D0089581E011969C91903109F497C080E0CE
S11307E0089581E012969C91913109F48FC080E0C4
S11307F0089513968C919EEE980F81E0963008F43C
S113080085C080E0089581E013969C91933109F4AA
S11308107DC080E0089513968C919CEE980F81E042
S1130820943008F473C080E0089581E013969C919D
S1130830953109F46BC080E0089581E013969C9192
S1130840963109F463C080E0089581E013969C9189
S1130850973109F45BC080E0089581E013969C9180
S1130860983109F453C080E0089581E014969C9176
S1130870993109F44BC080E0089581E014969C916D
S11308809A3109F443C080E0089581E014969C9164
S11308909B31E1F180E0089581E014969C919C31B4
S11308A0A9F180E0089515968C9193EE980F81E05C
S11308B0953060F180E0089581E015969C919E3119
S11308C029F180E0089581E015969C919F31F1F023
S11308D080E0089581E015969C919032B9F080E013
S11308E0089581E015969C91913281F080E00895FD
S11308F081E015969C91923249F080E0089581E060
S11309009C91933219F080E0089580E0089510BA24
S113091011BA109207011092080108953B9A439866
S1130920089581B18F6081B982B1807F82B9EAE094
S1130930F1E0808188618083EBE0F1E0808188616F
S1130940808308956C98749A08956D98759A0895A3
S113095087B1876F87B988B1807888B90895F8DF3F
S1130960D6DFDFDFEFDFF1DFD9CF089586B188600E
S113097088B9089586B1877F88B90895F894EAE61E
S1130980F0E0808182608083EC9A78940895F894F2
S1130990EAE6F0E0808188608083ED9A7894089597
S11309A01F920F920FB60F9211248F939F93AF93C0
S11309B0BF938091740390917503A0917603B091D5
S11309C077030196A11DB11D809374039093750361
S11309D0A0937603B0937703BF91AF919F918F91CA
S11309E00F900FBE0F901F90189592B1907F8F704B
S11309F0982B92B9089586E0F8CF0895CF93DF93AA
S1130A00EC018B81863159F0873181F08531A1F475
S1130A1084E28B8383E090E09F838E830DC084E225
S1130A208B8383E090E09F838E8306C084E28B8374
S1130A3083E090E09F838E83DEDF84EB8093280144
S1130A4080932A0183E18B8383E090E09F838E83EC
S1130A50DF91CF91089585E0C8CF08958AE0C5CF8E
S1130A60089584E0C2CF089582E0BFCF089580E066
S1130A70BCCF0895CF92DF92EF92FF920F931F9312
S1130A80BC0180E090E00E94E81328E431EE42E8E3
S1130A9050E40E9454130E94BC13AB0160E070E068
S1130AA010927403109275031092760310927703D8
S1130AB0109278031092790310927A0310927B03B8
S1130AC091E0E0E0C0907403D0907503E090760369
S1130AD0F0907703009178031091790320917A03C1
S1130AE030917B03892F041715072607370708F46D
S1130AF08E2F811109C0892FC416D506E606F70684
S1130B0008F48E2F8823F1F2B2DF1F910F91FF902A
S1130B10EF90DF90CF900895BC0180E090E00E94B8
S1130B20E81325EE30ED4AEA50E40E9454130E9483
S1130B30BC13AB01BC0110927403109275031092A4
S1130B407603109277038091740390917503A091BA
S1130B507603B0917703481759076A077B0798F71C
S1130B6086CF0895CF93DF93EC0145DFCE01D4DF28
S1130B70DF91CF910895CF93DF93EC016CDFCE0129
S1130B8079DFDF91CF910895CF93DF93EC0166DF96
S1130B90CE0170DFDF91CF9108951F920F920FB6AF
S1130BA00F9211248F939F93AF93BF9380917803F7
S1130BB090917903A0917A03B0917B030196A11DD2
S1130BC0B11D8093780390937903A0937A03B09333
S1130BD07B03BF91AF919F918F910F900FBE0F90A8
S1130BE01F901895F894109285001092840010922A
S1130BF0890080E980938800109280008DE08093C2
S1130C00810082E080936F0078940895E1E2F1E03E
S1130C1010828FEF8093250191E09093240110922C
S1130C2029018093280110922B0180932A011092AC
S1130C302D0180932C0189EA809320018BE080832D
S1130C400895EAE7F0E0108210927B0080E280933E
S1130C507C0080E880BF86E880830895883018F09F
S1130C6098E090937B008770806280937C00EAE731
S1130C70F0E0808180648083808184FFFDCF809157
S1130C807900EAE7F0E090819061908310927B0014
S1130C900895F89464DED5DFE4DA4BDBB7DFA2DF36
S1130CA06DDE75DE789408950F931F93CF93DF93D1
S1130CB08C01DC01ED91FC911197EE0FFF1FE75AB7
S1130CC0FC4F808191811296ED91FC911397EE0F68
S1130CD0FF1FEF5EFC4F20813181220F331F280F4D
S1130CE0391FCB010197029734F1EB0142E050E048
S1130CF01496ED91FC911597EE0FFF1FEF5BFC4FDF
S1130D0080819181880F991F280F391F1696ED91C4
S1130D10FC911797EE0FFF1FEF5EFC4F0190F081DF
S1130D20E02DEE0FFF1F2E0F3F1F4F5F5F4F1496F6
S1130D304C175D07E9F6FB01E150F04CEE0FFF1F85
S1130D40EE0FFF1FE00FF11FA081B181AA0FBB1F9F
S1130D50AF5BBC4F8D919C91880F991F280F391F51
S1130D600280F381E02DEE0FFF1FEF5EFC4F8081C8
S1130D709181820F931F660F771F61507109860F4F
S1130D80971FDF91CF911F910F910895FC019C0152
S1130D90205D3F4F8FEF9FEF918380839383828306
S1130DA03496E217F307C1F70895161617069CF454
S1130DB0FC0122813381232B81F480E090E005C083
S1130DC0349622813381232B51F401968617970799
S1130DD0B9F781E0089581E0089580E0089580E006
S1130DE008950F931F93CF93DF938C01EB01CEDF14
S1130DF01C161D06D4F4A4E0B4E0F801CC0FDD1FEA
S1130E00CC0FDD1FC8018C0F9D1F2D913C911197B4
S1130E103183208312962D913C911397338322833F
S1130E2014963496E817F90781F7DF91CF911F9153
S1130E300F9108952F923F924F925F926F927F92FB
S1130E408F929F92AF92BF92CF92DF92EF92FF92D6
S1130E500F931F93CF93DF93CDB7DEB761970FB690
S1130E60F894DEBF0FBECDBF9A878987C62ED72ED2
S1130E705C874B8719013801B8018C2D9D2D95DFB6
S1130E808F87811124C02CE0221631040CF09EC0FF
S1130E902101440C551C89859A85480E591ECD8222
S1130EA0DE82C701880F991F880F991FFC01EC5F30
S1130EB0FB4FFA83E9833296FC83EB8388248A947C
S1130EC0982C97012F5F3F4F3E872D8770C0B70145
S1130ED084E094E0E9DE209100023091010282175F
S1130EE093070CF073C09093010280930002B70142
S1130EF08B859C8576DF6AC0E889F98922813381F4
S1130F00F2018081918128173907D4F1E981FA81AE
S1130F1031822082E889F98980819181EB81FC8189
S1130F2091838083E889F98982819381F501208105
S1130F303181821B930BE889F98993838283ED8441
S1130F40FE8483012F8138854B855C856D817E818C
S1130F5089859A856FDFE981FA8191828082EB81AC
S1130F60FC8191828082E889F98922813381F501AB
S1130F7080819181820F931FE889F9899383828309
S1130F80FFEFCF1ADF0A288939892C5F3F4F398B4D
S1130F90288BC614D70409F0AFCF3FEF231A330AC6
S1130FA082E0480E511C9CE02916310479F0161495
S1130FB017049CF7ED80FE80C12CD12C5201F10165
S1130FC03196F887EF83F98AE88A96CF8F85619600
S1130FD00FB6F894DEBF0FBECDBFDF91CF911F9146
S1130FE00F91FF90EF90DF90CF90BF90AF909F90C4
S1130FF08F907F906F905F904F903F902F900895C7
S1131000660F771F660F771FDC01A60FB71F2D91A0
S11310103C911197440F551F440F551FFC01E40FD9
S1131020F51F8081918111969C938E933183208347
S113103012968D919C9113972281338113963C9340
S11310402E931297938382830895EF92FF920F93C6
S11310501F93CF93DF93FC01248135812F3F3F4FB2
S113106029F18C01EC01E12CF12CAA81BB81AA0F9E
S1131070BB1FAF5EBC4FEE81FF81EE0FFF1FEF5E23
S1131080FC4F2D913C91808191818217930734F418
S1131090A7014F5F5F4FB701C801B2DF2FEFE21A1C
S11310A0F20A24968C819D810196F9F6DF91CF9105
S11310B01F910F91FF90EF900895FC0120813181E1
S11310C02F3F3F4F71F0FC0180E090E001962481B6
S11310D035812F3F3F4F39F0349684309105B1F775
S11310E0089580E090E008958F929F92AF92BF920E
S11310F0CF92DF92EF92FF92CF93DF9383E0AEDD46
S1131100CCE7D3E090E0A0E0B0E08FA398A7A9A734
S1131110BAA782E0A3DD90E0A0E0B0E08FA798AB8F
S1131120A9ABBAAB81E09ADD90E0A0E0B0E08BA778
S11311309CA7ADA7BEA7CFA0D8A4E9A4FAA441E078
S113114021E1C216D104E104F1040CF440E08090E2
S1131150AB039090AC03A090AD03B090AE0351E00C
S113116021E182169104A104B1040CF450E031E0B1
S113117081319105A105B1050CF430E0232F242B16
S11311802523C9F4332311F0411117C025E7C216F2
S1131190D104E104F1049CF42AE682169104A1042A
S11311A0B1047CF421E08B369105A105B1050CF462
S11311B020E0822F07C081E005C081E003C081E008
S11311C001C081E0ECE7F3E0817087AB80AD811171
S11311D002C04093B4038091B603811102C03093DE
S11311E0B6038091B503811102C05093B503DF911A
S11311F0CF91FF90EF90DF90CF90BF90AF909F90F2
S11312008F9008951F920F920FB60F9211240BB670
S11312100F922F933F934F935F936F937F938F938B
S11312209F93AF93BF93EF93FF935EDFFF91EF9193
S1131230BF91AF919F918F917F916F915F914F91EA
S11312403F912F910F900BBE0F900FBE0F901F90E8
S11312501895CF93DF93FB01A081B181AA0FBB1F27
S1131260A750BD4F2D913C91DC012D933C93A0815F
S1131270B181AA0FBB1FAF51BD4F2D913C91DC0131
S113128013963C932E931297A081B181AA0FBB1F92
S1131290A40FB51F2D913C91DC0115963C932E9320
S11312A01497A281B381AA0FBB1FAF57BD4F2D91D5
S11312B03C91DC0117963C932E931697A281B3813F
S11312C0AA0FBB1FAF5ABD4F2D913C91DC0119965B
S11312D03C932E9318971B961C921E921A97248166
S11312E035812F3FBFEF3B0709F451C0DC0162E0B9
S11312F070E0220F331FE901C753DD4F2881398184
S11313001D963C932E931C97C481D581CC0FDD1F71
S1131310CF54DD4F288139811F963C932E931E971D
S1131320C481D581CC0FDD1FC40FD51F288139811D
S113133051963C932E935097C681D781CC0FDD1FD5
S1131340CF57DD4F2881398153963C932E93529782
S1131350C681D781CC0FDD1FCF5ADD4F288139815B
S113136055963C932E93549757961C921E925697DB
S11313706E5F7F4F208531852F3FCFEF3C0749F0CB
S11313801C9634966831710509F0B3CF02C062E04F
S113139070E0FB01EE0FFF1FE60FF71FEE0FFF1FBC
S11313A0E80FF91F8FEF9FEF9183808393838283EC
S11313B095838483DF91CF9108954115510541F0C0
S11313C086E69EE00197F1F7000041505109C1F70C
S11313D008958091720390917303FC01EE0FFF1F37
S11313E0E80FF91FEE0FFF1FE85CFB4F40815181AE
S11313F0052E000C660B770B4093BF035093C0037C
S11314006093C1037093C20342815381052E000C83
S1131410660B770B4093C3035093C4036093C503D7
S11314207093C60344815581052E000C660B770B1F
S11314304093BB035093BC036093BD037093BE03FE
S1131440019690937303809372030895CF93C42FEE
S11314500EDBC0932801C0932A012FEF8FE794E09D
S1131460215080409040E1F700C00000CF910895E2
S11314702F923F924F925F926F927F928F929F92A0
S1131480AF92BF92CF92DF92EF92FF920F931F938E
S1131490CF93DF93CDB7DEB728970FB6F894DEBFAE
S11314A00FBECDBF9E838D83DC0117961C921E92C6
S11314B0169780E090E00F2EF4E23F2EF02D0F2ED1
S11314C0F5E0CF2ED12CF02D0F2EF4EB2F2EF02D96
S11314D06894EE24E2F8F12C03E010E066246394AF
S11314E0712CAD5BBF4FBA83A9834D805E80B7E496
S11314F04B0E511CED81FE81FF96FC83EB83812C06
S1131500912C5401689481F82D813E8138872F8372
S1131510EF81F885E80FF91FE0818E2F90E0FC0140
S11315203197E232F10508F0F9C78827EA56FF4FF0
S11315308F4F0C947614AF81B885D7968C91D7973A
S1131540882309F4EBC73C9217961C921E921697B7
S1131550E1E01996EC931997CD013BDFE981FA811B
S113156080819181A281B381EF81F885878F90A3D7
S1131570A1A3B2A3F20180819181A281B381EF8101
S1131580F88583A394A3A5A3B6A321E0248B82E0CA
S1131590808317821682F0C760E18F81988591D885
S11315A0882309F4BBC7AF81B88517961C921E9295
S11315B0169781E018968C931897109278031092DE
S11315C0790310927A0310927B03FD0113AE14AEDB
S11315D015AE16AE84E08083A1C7EF81F88583AD94
S11315E094ADA5ADB6AD4597A105B1050CF496C76C
S11315F0308217821682BAD9AB81BC814D915C913D
S1131600930165E082E00E94FB0148EC50E060E059
S113161070E08F819885D1DEADD985E0EF81F885C2
S1131620808317821682A8C7AF81B885D7968C911C
S1131630D797882309F472C73C9217961C921E927E
S1131640169742E350E060E070E0CD01FFDE81E0F8
S1131650EF81F885838B818783A294A2A5A2B6A289
S1131660848B86E080831782168286C760E18F812F
S1131670988527D8882309F451C7EF81F8853082EB
S113168017821682CF01A5DEE981FA8180819181DA
S1131690A281B381EF81F885878F90A3A1A3B2A320
S11316A0F20180819181A281B381EF81F88583A3C6
S11316B094A3A5A3B6A381E0848B87E080831782DB
S11316C016825AC760E18F8198850E94610388233E
S11316D009F424C7AF81B88517961C921E921697F9
S11316E081E018968C9318971092780310927903DE
S11316F010927A0310927B03FD0113AE14AE15AE63
S113170016AE89E080830AC7EF81F88583AD94AD76
S1131710A5ADB6AD4597A105B1050CF4FFC6308261
S11317201782168223D9930140E050E065E082E0FD
S11317300E94FB0148EC50E060E070E08F819885E6
S11317403CDE18D98AE0AF81B8858C9317961C9239
S11317501E92169711C7EF81F88587A9882309F48B
S1131760DDC63082178216824FEF50E060E070E0F1
S1131770CF016CDE81E0AF81B88553968C9353978B
S113178019968C931997CD0124DEEF81F885808119
S1131790893019F08A3049F00DC0AF81B8853C9288
S11317A017961C921E92169705C0EF81F885308219
S11317B017821682EB81FC8180819181A281B381A1
S11317C08F3F9F4FAF4FBF4F09F03BC1AF81B885EB
S11317D0EC918E2F90E0FC013197EB30F10508F08D
S11317E043C08827E854FF4F8F4F0C947614EF8141
S11317F0F88530821782168237C0AF81B8853C9253
S113180017961C921E9216972FC0EF81F88530828E
S11318101782168229C0AF81B8853C9217961C9214
S11318201E92169721C0EF81F885308217821682A6
S11318301BC0AF81B8853C9217961C921E921697D6
S113184013C0EF81F8853082178216820DC0AF81F4
S1131850B8853C9217961C921E92169705C0EF818C
S1131860F885308217821682AF81B88511968C91E3
S11318708E3079F018F48C3031F024C08F3099F028
S11318808031B9F01FC0EF81F8853182778266829A
S113189019C0AF81B88511963C92119717967C9226
S11318A06E9216970FC0EF81F88531827782668237
S11318B009C0AF81B88511963C92119717967C9216
S11318C06E921697EF81F8858281813129F43282F4
S11318D022E030E037832683AF81B88513968C915C
S11318E08631D9F028F4833141F0853161F02AC082
S11318F08731C9F0883109F125C0EF81F885338239
S1131900178306831FC0AF81B88513963C92139743
S113191017961C930E93169715C0EF81F8853382A2
S1131920178306830FC0AF81B88513963C92139733
S113193017961C930E93169705C0EF81F885338292
S113194017830683AF81B88514968C918A3179F018
S113195018F4893131F024C08B3199F08C31B9F00D
S11319601FC0EF81F8853482F782E68219C0AF8107
S1131970B88514963C9214971796FC92EE9216979B
S11319800FC0EF81F8853482F782E68209C0AF8107
S1131990B88514963C9214971796FC92EE9216977B
S11319A0EF81F88585818032D9F028F48E3141F0B9
S11319B08F3181F02EC08132E9F0823209F129C0E1
S11319C0AF81B88515963C9215971796DC92CE9206
S11319D016971FC0EF81F8853582D782C68219C059
S11319E0AF81B88515963C9215971796DC92CE92E6
S11319F016970FC0EF81F8853582D782C68209C059
S1131A00AF81B88515963C9215971796DC92CE92C5
S1131A101697E8E2F1E01082AAE2B1E01C920E947B
S1131A20B60440ED57E060E070E08F819885C5DC36
S1131A300E94BA0483E2EF81F885808317821682BC
S1131A409BC5AF81B88593968D929D92AD92BC92C1
S1131A50969781E054968C9354978BE08C931796C9
S1131A601C921E92169788C560E18F8198850E940A
S1131A706103882309F452C5EF81F8851782168221
S1131A80E981FA8180819181A281B381EF81F88516
S1131A90878F90A3A1A3B2A3F20180819181A28137
S1131AA0B381EF81F88583A394A3A5A3B6A381E0B2
S1131AB0848B82E0808332C5AF81B885D7968C91C0
S1131AC0D797882309F42AC517967C926E921697A5
S1131AD081E019968C93199753968C9353978FE0C2
S1131AE011968C931BC562E28F8198850E946103D5
S1131AF0882309F413C5EF81F885318277826682E1
S1131B00CF010E941C0181E0AF81B88518968C93A7
S1131B1018978CE011968C93119717967C926E927D
S1131B2016972AC5EF81F885318277826682478DC0
S1131B3050A161A172A18789908DA18DB28D841766
S1131B409507A607B7072CF481E086878EE081838A
S1131B50E5C4481759076A077B0754F481E0AF814D
S1131B60B8851D968C931D978EE011968C93D6C4E0
S1131B70EF81F88543A154A165A176A1838D948D4D
S1131B80A58DB68D84179507A607B7072CF481E0B9
S1131B9083878EE08183C2C4481759076A077B078D
S1131BA054F481E0AF81B8851C968C931C978EE029
S1131BB011968C93B3C444E150E060E070E08F81EF
S1131BC0988544DC8F8198850E941C0180E1EF8117
S1131BD0F885818377826682CFC4AF81B8855496B5
S1131BE08C915497882309F499C417967C926E9229
S1131BF016978FE011968C9391C4EF81F8858389B1
S1131C00882309F48BC4328222E030E037832683B0
S1131C1069E1CF010E946103882381F0EF81F88597
S1131C20838D948DA58DB68D0196A11DB11D838FD5
S1131C30948FA58FB68F81E1828370C46AE18F810E
S1131C4098850E946103882381F0EF81F885838D54
S1131C50948DA58DB68D0197A109B109838F948FB9
S1131C60A58FB68F81E1828359C46BE18F819885FA
S1131C700E946103882381F0EF81F8858789908D24
S1131C80A18DB28D0197A109B109878B908FA18F86
S1131C90B28F81E1828342C46CE18F8198850E9476
S1131CA06103882381F0EF81F8858789908DA18D68
S1131CB0B28D0196A11DB11D878B908FA18FB28F1C
S1131CC081E182832BC481E1AF81B88512968C9324
S1131CD025C4EF81F8858185882321F0CF010E94F6
S1131CE014011CC4EF81F88587A190A5A1A5B2A514
S1131CF08997A105B105BCF03382178306830E943E
S1131D00310584E6A8E2B1E08C93EAE2F1E0808355
S1131D1086E1AF81B88513968C93139717961C931D
S1131D200E93169729C4EF81F88583A594A5A5A5DC
S1131D30B6A58997A105B105BCF033821783068344
S1131D400E94340586E9A8E2B1E08C93EAE2F1E06E
S1131D50808385E1AF81B88513968C93139717968A
S1131D601C930E93169708C4EF81F88587A590A954
S1131D70A1A9B2A98997A105B1050CF4CFC33382F7
S1131D80178306830E94340582E8A8E2B1E08C93AD
S1131D90EAE2F1E0808387E1AF81B88513968C9302
S1131DA0139717961C930E931697E6C3EF81F88545
S1131DB08185882321F0CF010E941401AFC38F8154
S1131DC098850E94E500882329F08F8198850E94D8
S1131DD0FE04A4C3EF81F88587A590A9A1A9B2A99F
S1131DE08997A105B1050CF499C33382178306833F
S1131DF00E94340582E8A8E2B1E08C93EAE2F1E0C3
S1131E00808387E1AF81B88513968C9313971796D7
S1131E101C930E931697B0C3EF81F88581858823B0
S1131E2021F0CF010E94140179C38F8198850E940B
S1131E30E500882329F08F8198850E94FE046EC3F3
S1131E40EF81F88587A590A9A1A9B2A98997A105D1
S1131E50B1050CF463C33382178306830E943405EF
S1131E6082E8A8E2B1E08C93EAE2F1E0808387E1C2
S1131E70AF81B88513968C93139717961C930E9382
S1131E8016977AC3EF81F8858185882321F0CF01E5
S1131E900E94140143C38F8198850E94E500882322
S1131EA029F08F8198850E94FE0438C3EF81F8855C
S1131EB087A190A5A1A5B2A58997A105B105BCF0FC
S1131EC03382178306830E94310584E6A8E2B1E0D9
S1131ED08C93EAE2F1E0808386E1AF81B8851396C2
S1131EE08C93139717961C930E93169745C3EF8103
S1131EF0F88583A594A5A5A5B6A58997A105B105DF
S1131F000CF40CC33382178306830E94340586E9DC
S1131F10A8E2B1E08C93EAE2F1E0808385E1AF814D
S1131F20B88513968C93139717961C930E93169754
S1131F3023C3EF81F8858085882309F4EFC23382B7
S1131F40178306830E94FB04A8E2B1E02C92EAE224
S1131F50F1E0208283E1AF81B88513968C931397C7
S1131F6017961C930E93169707C3EF81F885818902
S1131F70811103C086858823A1F0AF81B8851796A7
S1131F80FC92EE92169782E392E056969C938E937F
S1131F90559781E01A968C931A978CE114968C933A
S1131FA0BDC2EF81F8858089811103C085858823AE
S1131FB0A1F0AF81B8851796FC92EE92169788E34C
S1131FC092E056969C938E93559781E01A968C9343
S1131FD01A978BE114968C93A1C2EF81F8858785BB
S1131FE0811103C084858823A1F0AF81B885179639
S1131FF0FC92EE9216978DE392E056969C938E9304
S1132000559781E01A968C931A978AE114968C93CB
S113201085C2EF81F8858289811104C08385882374
S113202009F47CC2AF81B8851796FC92EE9216979C
S11320308AE292E056969C938E93559781E01A9685
S11320408C931A9789E114968C9368C2EF81F88572
S11320508189811103C085858823A1F0AF81B8856A
S11320601796FC92EE92169782E392E056969C9312
S11320708E93559781E01A968C931A978BE1149658
S11320808C934CC2EF81F8858089811103C08685C9
S11320908823A1F0AF81B8851796FC92EE9216972B
S11320A088E392E056969C938E93559781E01A9616
S11320B08C931A978CE114968C9330C2EF81F88537
S11320C08785811103C083858823A1F0AF81B885FA
S11320D01796FC92EE9216978DE392E056969C9397
S11320E08E93559781E01A968C931A9789E11496EA
S11320F08C9314C2EF81F8858289811104C0848590
S1132100882309F40BC2AF81B8851796FC92EE922E
S113211016978AE292E056969C938E93559781E0A7
S11321201A968C931A978AE114968C93F7C1EF81CF
S1132130F8858189811103C083858823A1F0AF814B
S1132140B8851796FC92EE92169782E392E0569623
S11321509C938E93559781E01A968C931A9789E1F4
S113216014968C93DBC1EF81F8858089811103C0BB
S113217084858823A1F0AF81B8851796FC92EE92EE
S1132180169788E392E056969C938E93559781E038
S11321901A968C931A978AE114968C93BFC1EF8197
S11321A0F8858785811103C086858823A1F0AF81D6
S11321B0B8851796FC92EE9216978DE392E05696A8
S11321C09C938E93559781E01A968C931A978CE181
S11321D014968C93A3C1EF81F8858289811104C080
S11321E08585882309F49AC1AF81B8851796FC9236
S11321F0EE9216978AE292E056969C938E935597A8
S113220081E01A968C931A978BE114968C9386C16D
S1132210EF81F8858189811103C084858823A1F029
S1132220AF81B8851796FC92EE92169782E392E0FE
S113223056969C938E93559781E01A968C931A9791
S11322408AE114968C936AC1EF81F88580898111A3
S113225003C083858823A1F0AF81B8851796FC92CB
S1132260EE92169788E392E056969C938E93559738
S113227081E01A968C931A9789E114968C934EC137
S1132280EF81F8858785811103C085858823A1F0B6
S1132290AF81B8851796FC92EE9216978DE392E083
S11322A056969C938E93559781E01A968C931A9721
S11322B08BE114968C9332C1EF81F8858289811168
S11322C004C08685882309F429C1AF81B88517968F
S11322D0FC92EE9216978AE292E056969C938E9325
S11322E0559781E01A968C931A978CE114968C93E7
S11322F015C1EF81F88587A9811110C13582D78274
S1132300C682CF010E940C0109C1AF81B885D8965D
S11323108C91D897882309F401C115963C9215979E
S11323201796DC92CE92169742E350E060E070E09C
S1132330CD018CD88F8198850E940C01EFC0EF816C
S1132340F88581AD882309F4E9C03582D782C68235
S113235040E550E060E070E0CF0178D88F81988547
S11323600E940C01DBC0AF81B885D9968C91D997B6
S1132370882309F4D3C015963C9215971796DC92DE
S1132380CE92169740E550E060E070E0CD015ED853
S11323908F8198850E940C01C1C0EF81F8858285E8
S11323A0882309F4BBC03582D782C682A8E2B1E093
S11323B02C92EAE2F1E02082AF81B88555960D9027
S11323C0BC91A02DBE83AD836AE272E0CD01A5D29B
S11323D0892B99F4EF81F885FE83ED830E94FB0439
S11323E08EE1AD81BE8115968C93159785E090E0C2
S11323F017969C938E931697B3C068E372E08D8111
S11324009E818BD2892B39F5EF81F885FE83ED838C
S113241086E490E00E94B2054FEF50E060E070E087
S11324208D819E8113D882E88093280180932A01AC
S113243087E390E00E94BB05AD81BE81D8961C92D3
S11324400E942B058FE1ED81FE81858385E090E07C
S11324509783868385C062E372E08D819E815DD21D
S1132460892B41F52F8138853E832D8387E390E0C6
S11324700E94B2054FEF50E060E070E08D819E81D4
S11324800E94260A82E88093280180932A0187E328
S113249090E00E94C405AD81BE81D9961C920E9431
S11324A02E0580E2ED81FE81858385E090E09783AF
S11324B0868356C06DE372E08D819E812ED2892B76
S11324C049F52F8138853E832D8388E290E00E9470
S11324D0B2054FEF50E060E070E08D819E810E9474
S11324E0260A84E68093280182E880932A0188E7FB
S11324F090E00E94C405AD81BE81D9961C920E94D1
S11325002E0581E2ED81FE81858385E090E097834D
S1132510868326C08F8198850E940C01AF81B8857F
S113252016968D919C911797019617969C938E936E
S113253016978630910510F40C94880ABE83AD83F7
S1132540ED81FE8110861186128613861486158607
S113255016861786108A118A128A138A148A15C05D
S1132560AD81BE8116968D919C9117970196179611
S11325709C938E931697E4CFEF81F885868197819B
S11325800196978386830C94880A28960FB6F8944C
S1132590DEBF0FBECDBFDF91CF911F910F91FF9092
S11325A0EF90DF90CF90BF90AF909F908F907F90EF
S11325B06F905F904F903F902F900895CF93DF934B
S11325C0CDB7DEB7C855D1090FB6F894DEBF0FBE3C
S11325D0CDBF0E94490688E1E2E0F2E0DE011196F7
S11325E001900D928A95E1F780E1EAE1F2E0DE01E3
S11325F0599601900D928A95E1F7CE0149960E9471
S11326005D088C01CE0189960E94C60682E492E0A0
S11326100E94D201E12CF12C20E030E0AE01475DB4
S11326205F4FBE01675E7F4FCE0101960E941A077D
S113263081E00E9474018AE492E00E94D201CE01FA
S113264089960E942508AE014F5F5F4FBE01675D0A
S11326507F4F88E394E00E9429092FEF8FEF99E5DB
S1132660215080409040E1F700C0000081E00E94CA
S113267074018CE793E00E94F3028CE793E00E94DC
S11326804E030CE713E08091780390917903A091B5
S11326907A03B0917B03F80183AF94AFA5AFB6AFD3
S11326A0C8010E94380AEFCF0CD0E6C0DED040F05B
S11326B0D5D030F021F45F3F19F0C7C0511110C1DB
S11326C0CAC0EBD098F39923C9F35523B1F3951BF2
S11326D0550BBB27AA2762177307840738F09F5F3F
S11326E05F4F220F331F441FAA1FA9F333D00E2EAE
S11326F03AF0E0E830D091505040E695001CCAF71B
S113270029D0FE2F27D0660F771F881FBB1F2617DF
S113271037074807AB07B0E809F0BB0B802DBF01B2
S1132720FF2793585F4F2AF09E3F510568F08DC0F4
S1132730D7C05F3FECF3983EDCF3869577956795B9
S1132740B795F7959F5FC9F7880F911D9695879563
S113275097F90895E1E0660F771F881FBB1F621782
S113276073078407BA0720F0621B730B840BBA0B40
S1132770EE1F88F7E095089598D088F09F5790F061
S1132780B92F9927B751A0F0D1F0660F771F881F92
S1132790991F1AF0BA95C9F712C0B13081F09FD0D1
S11327A0B1E008959CC0672F782F8827B85F39F06F
S11327B0B93FCCF3869577956795B395D9F73EF4F1
S11327C090958095709561957F4F8F4F9F4F089599
S11327D0E89409C097FB3EF49095809570956195B7
S11327E07F4F8F4F9F4F9923A9F0F92F96E9BB276D
S11327F09395F695879577956795B795F111F8CFE9
S1132800FAF4BB0F11F460FF1BC06F5F7F4F8F4F53
S11328109F4F16C0882311F096E911C0772321F049
S11328209EE8872F762F05C0662371F096E8862FE1
S113283070E060E02AF09A95660F771F881FDAF738
S1132840880F9695879597F9089597F99F6780E87B
S113285070E060E008959FEF80EC089500240A94EE
S11328601616170618060906089500240A94121667
S11328701306140605060895092E0394000C11F49A
S1132880882352F0BB0F40F4BF2B11F460FF04C047
S11328906F5F7F4F8F4F9F4F089557FD9058440FA0
S11328A0551F59F05F3F71F04795880F97FB991FAB
S11328B061F09F3F79F08795089512161306140668
S11328C0551FF2CF4695F1DF08C0161617061806F5
S11328D0991FF1CF86957105610508940895E894D0
S11328E0BB2766277727CB0197F90895EE0FFF1FC3
S11328F0881F8BBF0790F691E02D1994A29FB00119
S1132900B39FC001A39F700D811D1124911DB29F1F
S1132910700D811D1124911D0895FB01DC018D9121
S1132920019080190110D9F3990B0895F894FFCF01
S113293096000000050004000200090008000300DE
S1132940070006000100020001000A000F000C004D
S11329500B0017000A00FFFFFFFF666F72776172BA
S113296064007269676874006C6566740062616310
S11329706B00736F6C76696E6700736F6C76656459
S1132980000000000000000000010001000100013F
S11329900002000200020002000200020002000223
S11329A00003000300030003000400040004000407
S11329B000040005000600070004000500060007E7
S11329C000040005000600070004000500060007D7
S11329D000040005000600070004000500060007C7
S11329E000010001000100020002000200020002D6
S11329F000020003000300030001000200030001C1
S1132A0000020003000100020003000100020003B1
S1132A1000000000000000010001000100020002AB
S1132A200002000300030003000100010002000192
S1132A300001000200010001000200010001000287
S1132A400003000400050006000200030004000562
S1132A50000100020003000400010002000300045E
S1132A600002000300040005000300040005000642
S1132A70000400030002000300020001000300023E
S1132A800001000400030002000400040004000428
S1132A900004000400060006000600080008000800
S1052AA0000030
S9030000FC
